{
  "address": "0x790220EF4F1f107E374898ca211cBC2a724f8B1E",
  "abi": [
    {
      "inputs": [
        {
          "internalType": "address payable",
          "name": "devWallet_",
          "type": "address"
        },
        {
          "internalType": "address",
          "name": "_stableToken",
          "type": "address"
        },
        {
          "internalType": "uint256",
          "name": "_publicSaleOpenTimestamp",
          "type": "uint256"
        }
      ],
      "stateMutability": "nonpayable",
      "type": "constructor"
    },
    {
      "anonymous": false,
      "inputs": [
        {
          "indexed": true,
          "internalType": "address",
          "name": "owner",
          "type": "address"
        },
        {
          "indexed": true,
          "internalType": "address",
          "name": "approved",
          "type": "address"
        },
        {
          "indexed": true,
          "internalType": "uint256",
          "name": "tokenId",
          "type": "uint256"
        }
      ],
      "name": "Approval",
      "type": "event"
    },
    {
      "anonymous": false,
      "inputs": [
        {
          "indexed": true,
          "internalType": "address",
          "name": "owner",
          "type": "address"
        },
        {
          "indexed": true,
          "internalType": "address",
          "name": "operator",
          "type": "address"
        },
        {
          "indexed": false,
          "internalType": "bool",
          "name": "approved",
          "type": "bool"
        }
      ],
      "name": "ApprovalForAll",
      "type": "event"
    },
    {
      "anonymous": false,
      "inputs": [
        {
          "indexed": true,
          "internalType": "address",
          "name": "previousOwner",
          "type": "address"
        },
        {
          "indexed": true,
          "internalType": "address",
          "name": "newOwner",
          "type": "address"
        }
      ],
      "name": "OwnershipTransferred",
      "type": "event"
    },
    {
      "anonymous": false,
      "inputs": [
        {
          "indexed": true,
          "internalType": "address",
          "name": "buyer",
          "type": "address"
        },
        {
          "indexed": true,
          "internalType": "uint256",
          "name": "tokenId",
          "type": "uint256"
        }
      ],
      "name": "Sold",
      "type": "event"
    },
    {
      "anonymous": false,
      "inputs": [
        {
          "indexed": true,
          "internalType": "address",
          "name": "from",
          "type": "address"
        },
        {
          "indexed": true,
          "internalType": "address",
          "name": "to",
          "type": "address"
        },
        {
          "indexed": true,
          "internalType": "uint256",
          "name": "tokenId",
          "type": "uint256"
        }
      ],
      "name": "Transfer",
      "type": "event"
    },
    {
      "inputs": [],
      "name": "PUBLICSALETIMESTAMP",
      "outputs": [
        {
          "internalType": "uint256",
          "name": "",
          "type": "uint256"
        }
      ],
      "stateMutability": "view",
      "type": "function"
    },
    {
      "inputs": [],
      "name": "STABLETOKEN",
      "outputs": [
        {
          "internalType": "address",
          "name": "",
          "type": "address"
        }
      ],
      "stateMutability": "view",
      "type": "function"
    },
    {
      "inputs": [],
      "name": "activateSale",
      "outputs": [],
      "stateMutability": "nonpayable",
      "type": "function"
    },
    {
      "inputs": [
        {
          "internalType": "address",
          "name": "whitelistAddress",
          "type": "address"
        }
      ],
      "name": "addWhiteList",
      "outputs": [],
      "stateMutability": "nonpayable",
      "type": "function"
    },
    {
      "inputs": [
        {
          "internalType": "address",
          "name": "to",
          "type": "address"
        },
        {
          "internalType": "uint256",
          "name": "tokenId",
          "type": "uint256"
        }
      ],
      "name": "approve",
      "outputs": [],
      "stateMutability": "nonpayable",
      "type": "function"
    },
    {
      "inputs": [
        {
          "internalType": "address",
          "name": "owner",
          "type": "address"
        }
      ],
      "name": "balanceOf",
      "outputs": [
        {
          "internalType": "uint256",
          "name": "",
          "type": "uint256"
        }
      ],
      "stateMutability": "view",
      "type": "function"
    },
    {
      "inputs": [],
      "name": "buyDragonNest",
      "outputs": [],
      "stateMutability": "nonpayable",
      "type": "function"
    },
    {
      "inputs": [],
      "name": "devWallet",
      "outputs": [
        {
          "internalType": "address",
          "name": "",
          "type": "address"
        }
      ],
      "stateMutability": "view",
      "type": "function"
    },
    {
      "inputs": [
        {
          "internalType": "uint256",
          "name": "tokenId",
          "type": "uint256"
        }
      ],
      "name": "getApproved",
      "outputs": [
        {
          "internalType": "address",
          "name": "",
          "type": "address"
        }
      ],
      "stateMutability": "view",
      "type": "function"
    },
    {
      "inputs": [
        {
          "internalType": "address",
          "name": "owner",
          "type": "address"
        },
        {
          "internalType": "address",
          "name": "operator",
          "type": "address"
        }
      ],
      "name": "isApprovedForAll",
      "outputs": [
        {
          "internalType": "bool",
          "name": "",
          "type": "bool"
        }
      ],
      "stateMutability": "view",
      "type": "function"
    },
    {
      "inputs": [],
      "name": "itemCost",
      "outputs": [
        {
          "internalType": "uint256",
          "name": "",
          "type": "uint256"
        }
      ],
      "stateMutability": "view",
      "type": "function"
    },
    {
      "inputs": [
        {
          "internalType": "string",
          "name": "tokenURI",
          "type": "string"
        }
      ],
      "name": "mintItem",
      "outputs": [
        {
          "internalType": "uint256",
          "name": "",
          "type": "uint256"
        }
      ],
      "stateMutability": "nonpayable",
      "type": "function"
    },
    {
      "inputs": [],
      "name": "name",
      "outputs": [
        {
          "internalType": "string",
          "name": "",
          "type": "string"
        }
      ],
      "stateMutability": "view",
      "type": "function"
    },
    {
      "inputs": [],
      "name": "owner",
      "outputs": [
        {
          "internalType": "address",
          "name": "",
          "type": "address"
        }
      ],
      "stateMutability": "view",
      "type": "function"
    },
    {
      "inputs": [
        {
          "internalType": "uint256",
          "name": "tokenId",
          "type": "uint256"
        }
      ],
      "name": "ownerOf",
      "outputs": [
        {
          "internalType": "address",
          "name": "",
          "type": "address"
        }
      ],
      "stateMutability": "view",
      "type": "function"
    },
    {
      "inputs": [],
      "name": "renounceOwnership",
      "outputs": [],
      "stateMutability": "nonpayable",
      "type": "function"
    },
    {
      "inputs": [
        {
          "internalType": "address",
          "name": "from",
          "type": "address"
        },
        {
          "internalType": "address",
          "name": "to",
          "type": "address"
        },
        {
          "internalType": "uint256",
          "name": "tokenId",
          "type": "uint256"
        }
      ],
      "name": "safeTransferFrom",
      "outputs": [],
      "stateMutability": "nonpayable",
      "type": "function"
    },
    {
      "inputs": [
        {
          "internalType": "address",
          "name": "from",
          "type": "address"
        },
        {
          "internalType": "address",
          "name": "to",
          "type": "address"
        },
        {
          "internalType": "uint256",
          "name": "tokenId",
          "type": "uint256"
        },
        {
          "internalType": "bytes",
          "name": "_data",
          "type": "bytes"
        }
      ],
      "name": "safeTransferFrom",
      "outputs": [],
      "stateMutability": "nonpayable",
      "type": "function"
    },
    {
      "inputs": [
        {
          "internalType": "address",
          "name": "operator",
          "type": "address"
        },
        {
          "internalType": "bool",
          "name": "approved",
          "type": "bool"
        }
      ],
      "name": "setApprovalForAll",
      "outputs": [],
      "stateMutability": "nonpayable",
      "type": "function"
    },
    {
      "inputs": [
        {
          "internalType": "uint256",
          "name": "_cost",
          "type": "uint256"
        }
      ],
      "name": "setItemCost",
      "outputs": [],
      "stateMutability": "nonpayable",
      "type": "function"
    },
    {
      "inputs": [
        {
          "internalType": "bytes4",
          "name": "interfaceId",
          "type": "bytes4"
        }
      ],
      "name": "supportsInterface",
      "outputs": [
        {
          "internalType": "bool",
          "name": "",
          "type": "bool"
        }
      ],
      "stateMutability": "view",
      "type": "function"
    },
    {
      "inputs": [],
      "name": "symbol",
      "outputs": [
        {
          "internalType": "string",
          "name": "",
          "type": "string"
        }
      ],
      "stateMutability": "view",
      "type": "function"
    },
    {
      "inputs": [
        {
          "internalType": "uint256",
          "name": "tokenId",
          "type": "uint256"
        }
      ],
      "name": "tokenURI",
      "outputs": [
        {
          "internalType": "string",
          "name": "",
          "type": "string"
        }
      ],
      "stateMutability": "view",
      "type": "function"
    },
    {
      "inputs": [
        {
          "internalType": "address",
          "name": "from",
          "type": "address"
        },
        {
          "internalType": "address",
          "name": "to",
          "type": "address"
        },
        {
          "internalType": "uint256",
          "name": "tokenId",
          "type": "uint256"
        }
      ],
      "name": "transferFrom",
      "outputs": [],
      "stateMutability": "nonpayable",
      "type": "function"
    },
    {
      "inputs": [
        {
          "internalType": "address",
          "name": "newOwner",
          "type": "address"
        }
      ],
      "name": "transferOwnership",
      "outputs": [],
      "stateMutability": "nonpayable",
      "type": "function"
    }
  ],
  "transactionHash": "0xf758704a11b2151c02c6dede2f780168bcbcd7f085ca7aa63902ae8a100d7b23",
  "args": [
    "0x6C641CE6A7216F12d28692f9d8b2BDcdE812eD2b",
    "0xF143436dE21a03c50267dBf64F2B7D6d14dEeA0F",
    0
  ],
  "solcInputHash": "ac6cc1c261b243f57edb61d22add3161",
  "bytecode": "0x60c06040523480156200001157600080fd5b5060405162002516380380620025168339810160408190526200003491620001ed565b604080518082018252601681527f447261676f6e204e65737420537570706f72746572730000000000000000000060208083019182528351808501909452600484526344434e5360e01b908401528151919291620000959160009162000147565b508051620000ab90600190602084019062000147565b505050620000c8620000c2620000f160201b60201c565b620000f5565b60016008556001600160601b0319606093841b811660a0529190921b16608052600f556200028a565b3390565b600780546001600160a01b038381166001600160a01b0319831681179093556040519116919082907f8be0079c531659141344cd1fd0a4f28419497f9722a3daafe3b4186f6b6457e090600090a35050565b828054620001559062000234565b90600052602060002090601f016020900481019282620001795760008555620001c4565b82601f106200019457805160ff1916838001178555620001c4565b82800160010185558215620001c4579182015b82811115620001c4578251825591602001919060010190620001a7565b50620001d2929150620001d6565b5090565b5b80821115620001d25760008155600101620001d7565b60008060006060848603121562000202578283fd5b83516200020f8162000271565b6020850151909350620002228162000271565b80925050604084015190509250925092565b6002810460018216806200024957607f821691505b602082108114156200026b57634e487b7160e01b600052602260045260246000fd5b50919050565b6001600160a01b03811681146200028757600080fd5b50565b60805160601c60a05160601c612252620002c46000396000818161064c0152610894015260008181610623015261086101526122526000f3fe608060405234801561001057600080fd5b50600436106101a35760003560e01c80638b80118e116100ee578063c721f08d11610097578063e352098a11610071578063e352098a14610313578063e7cd4a041461031b578063e985e9c51461032e578063f2fde38b14610341576101a3565b8063c721f08d146102e5578063c7545849146102ed578063c87b56dd14610300576101a3565b806395d89b41116100c857806395d89b41146102b7578063a22cb465146102bf578063b88d4fde146102d2576101a3565b80638b80118e1461029f5780638da5cb5b146102a75780638ea5220f146102af576101a3565b80632a659975116101505780636352211e1161012a5780636352211e1461027157806370a0823114610284578063715018a614610297576101a3565b80632a659975146102365780633f7a03f91461024b57806342842e0e1461025e576101a3565b8063095ea7b311610181578063095ea7b31461020657806323639f6b1461021b57806323b872dd14610223576101a3565b806301ffc9a7146101a857806306fdde03146101d1578063081812fc146101e6575b600080fd5b6101bb6101b63660046117c4565b610354565b6040516101c89190611945565b60405180910390f35b6101d961039c565b6040516101c89190611950565b6101f96101f4366004611842565b61042e565b6040516101c891906118d1565b61021961021436600461177f565b61047a565b005b610219610512565b610219610231366004611695565b6106fe565b61023e610736565b6040516101c891906120bd565b610219610259366004611842565b61073c565b61021961026c366004611695565b610780565b6101f961027f366004611842565b61079b565b61023e610292366004611649565b6107d0565b610219610814565b6101f961085f565b6101f9610883565b6101f9610892565b6101d96108b6565b6102196102cd366004611749565b6108c5565b6102196102e03660046116d0565b610993565b6102196109d2565b61023e6102fb3660046117fc565b610a20565b6101d961030e366004611842565b610ab6565b61023e610bd7565b610219610329366004611649565b610bdd565b6101bb61033c366004611663565b610c95565b61021961034f366004611649565b610cc3565b60006001600160e01b031982166380ac58cd60e01b148061038557506001600160e01b03198216635b5e139f60e01b145b80610394575061039482610d34565b90505b919050565b6060600080546103ab9061214c565b80601f01602080910402602001604051908101604052809291908181526020018280546103d79061214c565b80156104245780601f106103f957610100808354040283529160200191610424565b820191906000526020600020905b81548152906001019060200180831161040757829003601f168201915b5050505050905090565b600061043982610d4d565b61045e5760405162461bcd60e51b815260040161045590611de5565b60405180910390fd5b506000908152600460205260409020546001600160a01b031690565b60006104858261079b565b9050806001600160a01b0316836001600160a01b031614156104b95760405162461bcd60e51b815260040161045590611f7a565b806001600160a01b03166104cb610d6a565b6001600160a01b031614806104e757506104e78161033c610d6a565b6105035760405162461bcd60e51b815260040161045590611c06565b61050d8383610d6e565b505050565b600260085414156105355760405162461bcd60e51b815260040161045590612018565b60026008819055610547610292610d6a565b106105645760405162461bcd60e51b815260040161045590611bcf565b600e5460ff166105865760405162461bcd60e51b815260040161045590612086565b6019610592600a610ddc565b106105af5760405162461bcd60e51b815260040161045590611e66565b600f5442101561061457336000908152600c602052604090205460ff166105e85760405162461bcd60e51b815260040161045590611b98565b336000908152600d60205260409020546106145760405162461bcd60e51b815260040161045590611e9d565b61061e600a610de0565b6106737f000000000000000000000000000000000000000000000000000000000000000061064a610d6a565b7f0000000000000000000000000000000000000000000000000000000000000000600b54610de9565b6106973033610682600a610ddc565b60405180602001604052806000815250610eee565b600f544210156106c257336000908152600d602052604081208054916106bc83612135565b91905055505b6106cc600a610ddc565b60405133907fae92ab4b6f8f401ead768d3273e6bb937a13e39827d19c6376e8fd4512a05d9a90600090a36001600855565b61070f610709610d6a565b82610f21565b61072b5760405162461bcd60e51b815260040161045590611fbb565b61050d838383610f9e565b600f5481565b610744610d6a565b6001600160a01b0316610755610883565b6001600160a01b03161461077b5760405162461bcd60e51b815260040161045590611e31565b600b55565b61050d83838360405180602001604052806000815250610993565b6000818152600260205260408120546001600160a01b0316806103945760405162461bcd60e51b815260040161045590611cad565b60006001600160a01b0382166107f85760405162461bcd60e51b815260040161045590611c63565b506001600160a01b031660009081526003602052604090205490565b61081c610d6a565b6001600160a01b031661082d610883565b6001600160a01b0316146108535760405162461bcd60e51b815260040161045590611e31565b61085d60006110cb565b565b7f000000000000000000000000000000000000000000000000000000000000000081565b6007546001600160a01b031690565b7f000000000000000000000000000000000000000000000000000000000000000090565b6060600180546103ab9061214c565b6108cd610d6a565b6001600160a01b0316826001600160a01b031614156108fe5760405162461bcd60e51b815260040161045590611b15565b806005600061090b610d6a565b6001600160a01b03908116825260208083019390935260409182016000908120918716808252919093529120805460ff19169215159290921790915561094f610d6a565b6001600160a01b03167f17307eab39ab6107e8899845ad3d59bd9653f200f220920489ca2b5937696c31836040516109879190611945565b60405180910390a35050565b6109a461099e610d6a565b83610f21565b6109c05760405162461bcd60e51b815260040161045590611fbb565b6109cc84848484610eee565b50505050565b6109da610d6a565b6001600160a01b03166109eb610883565b6001600160a01b031614610a115760405162461bcd60e51b815260040161045590611e31565b600e805460ff19166001179055565b6000610a2a610d6a565b6001600160a01b0316610a3b610883565b6001600160a01b031614610a615760405162461bcd60e51b815260040161045590611e31565b6019610a6d6009610ddc565b10610a8a5760405162461bcd60e51b81526004016104559061204f565b610a946009610de0565b6000610aa06009610ddc565b9050610aac308261111d565b61039481846111fc565b6060610ac182610d4d565b610add5760405162461bcd60e51b815260040161045590611d88565b60008281526006602052604081208054610af69061214c565b80601f0160208091040260200160405190810160405280929190818152602001828054610b229061214c565b8015610b6f5780601f10610b4457610100808354040283529160200191610b6f565b820191906000526020600020905b815481529060010190602001808311610b5257829003601f168201915b505050505090506000610b80611240565b9050805160001415610b9457509050610397565b815115610bc6578082604051602001610bae9291906118a2565b60405160208183030381529060405292505050610397565b610bcf84611252565b949350505050565b600b5490565b610be5610d6a565b6001600160a01b0316610bf6610883565b6001600160a01b031614610c1c5760405162461bcd60e51b815260040161045590611e31565b6001600160a01b0381166000908152600d6020526040902054600211610c545760405162461bcd60e51b815260040161045590611a9a565b6001600160a01b0381166000908152600c60209081526040808320805460ff19166001179055600d9091528120805491610c8d83612187565b919050555050565b6001600160a01b03918216600090815260056020908152604080832093909416825291909152205460ff1690565b610ccb610d6a565b6001600160a01b0316610cdc610883565b6001600160a01b031614610d025760405162461bcd60e51b815260040161045590611e31565b6001600160a01b038116610d285760405162461bcd60e51b8152600401610455906119c0565b610d31816110cb565b50565b6001600160e01b031981166301ffc9a760e01b14919050565b6000908152600260205260409020546001600160a01b0316151590565b3390565b600081815260046020526040902080546001600160a01b0319166001600160a01b0384169081179091558190610da38261079b565b6001600160a01b03167f8c5be1e5ebec7d5bd14f71427d1e84f3dd0314c0f7b2291e5b200ac8c7c3b92560405160405180910390a45050565b5490565b80546001019055565b600080856001600160a01b03166323b872dd868686604051602401610e10939291906118e5565b6040516020818303038152906040529060e01b6020820180517bffffffffffffffffffffffffffffffffffffffffffffffffffffffff8381831617835250505050604051610e5e9190611886565b6000604051808303816000865af19150503d8060008114610e9b576040519150601f19603f3d011682016040523d82523d6000602084013e610ea0565b606091505b5091509150818015610eca575080511580610eca575080806020019051810190610eca91906117a8565b610ee65760405162461bcd60e51b815260040161045590611a3d565b505050505050565b610ef9848484610f9e565b610f05848484846112d5565b6109cc5760405162461bcd60e51b815260040161045590611963565b6000610f2c82610d4d565b610f485760405162461bcd60e51b815260040161045590611b4c565b6000610f538361079b565b9050806001600160a01b0316846001600160a01b03161480610f8e5750836001600160a01b0316610f838461042e565b6001600160a01b0316145b80610bcf5750610bcf8185610c95565b826001600160a01b0316610fb18261079b565b6001600160a01b031614610fd75760405162461bcd60e51b815260040161045590611ed4565b6001600160a01b038216610ffd5760405162461bcd60e51b815260040161045590611ad1565b61100883838361050d565b611013600082610d6e565b6001600160a01b038316600090815260036020526040812080546001929061103c9084906120f2565b90915550506001600160a01b038216600090815260036020526040812080546001929061106a9084906120c6565b909155505060008181526002602052604080822080546001600160a01b0319166001600160a01b0386811691821790925591518493918716917fddf252ad1be2c89b69c2b068fc378daa952ba7f163c4a11628f55a4df523b3ef91a4505050565b600780546001600160a01b038381166001600160a01b0319831681179093556040519116919082907f8be0079c531659141344cd1fd0a4f28419497f9722a3daafe3b4186f6b6457e090600090a35050565b6001600160a01b0382166111435760405162461bcd60e51b815260040161045590611d53565b61114c81610d4d565b156111695760405162461bcd60e51b815260040161045590611a06565b6111756000838361050d565b6001600160a01b038216600090815260036020526040812080546001929061119e9084906120c6565b909155505060008181526002602052604080822080546001600160a01b0319166001600160a01b03861690811790915590518392907fddf252ad1be2c89b69c2b068fc378daa952ba7f163c4a11628f55a4df523b3ef908290a45050565b61120582610d4d565b6112215760405162461bcd60e51b815260040161045590611cf6565b6000828152600660209081526040909120825161050d92840190611529565b60408051602081019091526000815290565b606061125d82610d4d565b6112795760405162461bcd60e51b815260040161045590611f1d565b6000611283611240565b905060008151116112a357604051806020016040528060008152506112ce565b806112ad846113f0565b6040516020016112be9291906118a2565b6040516020818303038152906040525b9392505050565b60006112e9846001600160a01b0316611523565b156113e557836001600160a01b031663150b7a02611305610d6a565b8786866040518563ffffffff1660e01b81526004016113279493929190611909565b602060405180830381600087803b15801561134157600080fd5b505af1925050508015611371575060408051601f3d908101601f1916820190925261136e918101906117e0565b60015b6113cb573d80801561139f576040519150601f19603f3d011682016040523d82523d6000602084013e6113a4565b606091505b5080516113c35760405162461bcd60e51b815260040161045590611963565b805181602001fd5b6001600160e01b031916630a85bd0160e11b149050610bcf565b506001949350505050565b60608161141557506040805180820190915260018152600360fc1b6020820152610397565b8160005b811561143f578061142981612187565b91506114389050600a836120de565b9150611419565b60008167ffffffffffffffff81111561146857634e487b7160e01b600052604160045260246000fd5b6040519080825280601f01601f191660200182016040528015611492576020820181803683370190505b5090505b8415610bcf576114a76001836120f2565b91506114b4600a866121a2565b6114bf9060306120c6565b60f81b8183815181106114e257634e487b7160e01b600052603260045260246000fd5b60200101907effffffffffffffffffffffffffffffffffffffffffffffffffffffffffffff1916908160001a90535061151c600a866120de565b9450611496565b3b151590565b8280546115359061214c565b90600052602060002090601f016020900481019282611557576000855561159d565b82601f1061157057805160ff191683800117855561159d565b8280016001018555821561159d579182015b8281111561159d578251825591602001919060010190611582565b506115a99291506115ad565b5090565b5b808211156115a957600081556001016115ae565b600067ffffffffffffffff808411156115dd576115dd6121e2565b604051601f8501601f191681016020018281118282101715611601576116016121e2565b60405284815291508183850186101561161957600080fd5b8484602083013760006020868301015250509392505050565b80356001600160a01b038116811461039757600080fd5b60006020828403121561165a578081fd5b6112ce82611632565b60008060408385031215611675578081fd5b61167e83611632565b915061168c60208401611632565b90509250929050565b6000806000606084860312156116a9578081fd5b6116b284611632565b92506116c060208501611632565b9150604084013590509250925092565b600080600080608085870312156116e5578081fd5b6116ee85611632565b93506116fc60208601611632565b925060408501359150606085013567ffffffffffffffff81111561171e578182fd5b8501601f8101871361172e578182fd5b61173d878235602084016115c2565b91505092959194509250565b6000806040838503121561175b578182fd5b61176483611632565b91506020830135611774816121f8565b809150509250929050565b60008060408385031215611791578182fd5b61179a83611632565b946020939093013593505050565b6000602082840312156117b9578081fd5b81516112ce816121f8565b6000602082840312156117d5578081fd5b81356112ce81612206565b6000602082840312156117f1578081fd5b81516112ce81612206565b60006020828403121561180d578081fd5b813567ffffffffffffffff811115611823578182fd5b8201601f81018413611833578182fd5b610bcf848235602084016115c2565b600060208284031215611853578081fd5b5035919050565b60008151808452611872816020860160208601612109565b601f01601f19169290920160200192915050565b60008251611898818460208701612109565b9190910192915050565b600083516118b4818460208801612109565b8351908301906118c8818360208801612109565b01949350505050565b6001600160a01b0391909116815260200190565b6001600160a01b039384168152919092166020820152604081019190915260600190565b60006001600160a01b0380871683528086166020840152508360408301526080606083015261193b608083018461185a565b9695505050505050565b901515815260200190565b6000602082526112ce602083018461185a565b60208082526032908201527f4552433732313a207472616e7366657220746f206e6f6e20455243373231526560408201527f63656976657220696d706c656d656e7465720000000000000000000000000000606082015260800190565b60208082526026908201527f4f776e61626c653a206e6577206f776e657220697320746865207a65726f206160408201526564647265737360d01b606082015260800190565b6020808252601c908201527f4552433732313a20746f6b656e20616c7265616479206d696e74656400000000604082015260600190565b60208082526031908201527f5472616e7366657248656c7065723a3a7472616e7366657246726f6d3a20747260408201527f616e7366657246726f6d206661696c6564000000000000000000000000000000606082015260800190565b6020808252601a908201527f616c726561647920686173203220696e20616c6c6f77616e6365000000000000604082015260600190565b60208082526024908201527f4552433732313a207472616e7366657220746f20746865207a65726f206164646040820152637265737360e01b606082015260800190565b60208082526019908201527f4552433732313a20617070726f766520746f2063616c6c657200000000000000604082015260600190565b6020808252602c908201527f4552433732313a206f70657261746f7220717565727920666f72206e6f6e657860408201526b34b9ba32b73a103a37b5b2b760a11b606082015260800190565b60208082526010908201527f4e6f7420696e2077686974656c69737400000000000000000000000000000000604082015260600190565b60208082526010908201527f447261676f6e3a466f7262696464656e00000000000000000000000000000000604082015260600190565b60208082526038908201527f4552433732313a20617070726f76652063616c6c6572206973206e6f74206f7760408201527f6e6572206e6f7220617070726f76656420666f7220616c6c0000000000000000606082015260800190565b6020808252602a908201527f4552433732313a2062616c616e636520717565727920666f7220746865207a65604082015269726f206164647265737360b01b606082015260800190565b60208082526029908201527f4552433732313a206f776e657220717565727920666f72206e6f6e657869737460408201526832b73a103a37b5b2b760b91b606082015260800190565b6020808252602e908201527f45524337323155524953746f726167653a2055524920736574206f66206e6f6e60408201527f6578697374656e7420746f6b656e000000000000000000000000000000000000606082015260800190565b6020808252818101527f4552433732313a206d696e7420746f20746865207a65726f2061646472657373604082015260600190565b60208082526031908201527f45524337323155524953746f726167653a2055524920717565727920666f722060408201527f6e6f6e6578697374656e7420746f6b656e000000000000000000000000000000606082015260800190565b6020808252602c908201527f4552433732313a20617070726f76656420717565727920666f72206e6f6e657860408201526b34b9ba32b73a103a37b5b2b760a11b606082015260800190565b6020808252818101527f4f776e61626c653a2063616c6c6572206973206e6f7420746865206f776e6572604082015260600190565b6020808252600f908201527f616c6c20746f6b656e7320736f6c640000000000000000000000000000000000604082015260600190565b60208082526018908201527f6d757374206861766520707572636861736573206c6566740000000000000000604082015260600190565b60208082526029908201527f4552433732313a207472616e73666572206f6620746f6b656e2074686174206960408201526839903737ba1037bbb760b91b606082015260800190565b6020808252602f908201527f4552433732314d657461646174613a2055524920717565727920666f72206e6f60408201527f6e6578697374656e7420746f6b656e0000000000000000000000000000000000606082015260800190565b60208082526021908201527f4552433732313a20617070726f76616c20746f2063757272656e74206f776e656040820152603960f91b606082015260800190565b60208082526031908201527f4552433732313a207472616e736665722063616c6c6572206973206e6f74206f60408201527f776e6572206e6f7220617070726f766564000000000000000000000000000000606082015260800190565b6020808252601f908201527f5265656e7472616e637947756172643a207265656e7472616e742063616c6c00604082015260600190565b6020808252601b908201527f416c6c20746f6b656e732068617665206265656e206d696e7465640000000000604082015260600190565b60208082526013908201527f73616c65206d7573742062652061637469766500000000000000000000000000604082015260600190565b90815260200190565b600082198211156120d9576120d96121b6565b500190565b6000826120ed576120ed6121cc565b500490565b600082821015612104576121046121b6565b500390565b60005b8381101561212457818101518382015260200161210c565b838111156109cc5750506000910152565b600081612144576121446121b6565b506000190190565b60028104600182168061216057607f821691505b6020821081141561218157634e487b7160e01b600052602260045260246000fd5b50919050565b600060001982141561219b5761219b6121b6565b5060010190565b6000826121b1576121b16121cc565b500690565b634e487b7160e01b600052601160045260246000fd5b634e487b7160e01b600052601260045260246000fd5b634e487b7160e01b600052604160045260246000fd5b8015158114610d3157600080fd5b6001600160e01b031981168114610d3157600080fdfea2646970667358221220ec844ddfaf735b97ec494355401439a133a75a6222b7af9ae4313d8a0e59740364736f6c63430008000033",
  "devdoc": {
    "kind": "dev",
    "methods": {
      "approve(address,uint256)": {
        "details": "See {IERC721-approve}."
      },
      "balanceOf(address)": {
        "details": "See {IERC721-balanceOf}."
      },
      "getApproved(uint256)": {
        "details": "See {IERC721-getApproved}."
      },
      "isApprovedForAll(address,address)": {
        "details": "See {IERC721-isApprovedForAll}."
      },
      "name()": {
        "details": "See {IERC721Metadata-name}."
      },
      "owner()": {
        "details": "Returns the address of the current owner."
      },
      "ownerOf(uint256)": {
        "details": "See {IERC721-ownerOf}."
      },
      "renounceOwnership()": {
        "details": "Leaves the contract without owner. It will not be possible to call `onlyOwner` functions anymore. Can only be called by the current owner. NOTE: Renouncing ownership will leave the contract without an owner, thereby removing any functionality that is only available to the owner."
      },
      "safeTransferFrom(address,address,uint256)": {
        "details": "See {IERC721-safeTransferFrom}."
      },
      "safeTransferFrom(address,address,uint256,bytes)": {
        "details": "See {IERC721-safeTransferFrom}."
      },
      "setApprovalForAll(address,bool)": {
        "details": "See {IERC721-setApprovalForAll}."
      },
      "supportsInterface(bytes4)": {
        "details": "See {IERC165-supportsInterface}."
      },
      "symbol()": {
        "details": "See {IERC721Metadata-symbol}."
      },
      "tokenURI(uint256)": {
        "details": "See {IERC721Metadata-tokenURI}."
      },
      "transferFrom(address,address,uint256)": {
        "details": "See {IERC721-transferFrom}."
      },
      "transferOwnership(address)": {
        "details": "Transfers ownership of the contract to a new account (`newOwner`). Can only be called by the current owner."
      }
    },
    "version": 1
  },
  "userdoc": {
    "kind": "user",
    "methods": {},
    "version": 1
  },
  "storageLayout": {
    "storage": [
      {
        "astId": 2462,
        "contract": "contracts/dragon/DragonNestSupporter.sol:DragonNestSupporter",
        "label": "_name",
        "offset": 0,
        "slot": "0",
        "type": "t_string_storage"
      },
      {
        "astId": 2464,
        "contract": "contracts/dragon/DragonNestSupporter.sol:DragonNestSupporter",
        "label": "_symbol",
        "offset": 0,
        "slot": "1",
        "type": "t_string_storage"
      },
      {
        "astId": 2468,
        "contract": "contracts/dragon/DragonNestSupporter.sol:DragonNestSupporter",
        "label": "_owners",
        "offset": 0,
        "slot": "2",
        "type": "t_mapping(t_uint256,t_address)"
      },
      {
        "astId": 2472,
        "contract": "contracts/dragon/DragonNestSupporter.sol:DragonNestSupporter",
        "label": "_balances",
        "offset": 0,
        "slot": "3",
        "type": "t_mapping(t_address,t_uint256)"
      },
      {
        "astId": 2476,
        "contract": "contracts/dragon/DragonNestSupporter.sol:DragonNestSupporter",
        "label": "_tokenApprovals",
        "offset": 0,
        "slot": "4",
        "type": "t_mapping(t_uint256,t_address)"
      },
      {
        "astId": 2482,
        "contract": "contracts/dragon/DragonNestSupporter.sol:DragonNestSupporter",
        "label": "_operatorApprovals",
        "offset": 0,
        "slot": "5",
        "type": "t_mapping(t_address,t_mapping(t_address,t_bool))"
      },
      {
        "astId": 3399,
        "contract": "contracts/dragon/DragonNestSupporter.sol:DragonNestSupporter",
        "label": "_tokenURIs",
        "offset": 0,
        "slot": "6",
        "type": "t_mapping(t_uint256,t_string_storage)"
      },
      {
        "astId": 7,
        "contract": "contracts/dragon/DragonNestSupporter.sol:DragonNestSupporter",
        "label": "_owner",
        "offset": 0,
        "slot": "7",
        "type": "t_address"
      },
      {
        "astId": 206,
        "contract": "contracts/dragon/DragonNestSupporter.sol:DragonNestSupporter",
        "label": "_status",
        "offset": 0,
        "slot": "8",
        "type": "t_uint256"
      },
      {
        "astId": 6787,
        "contract": "contracts/dragon/DragonNestSupporter.sol:DragonNestSupporter",
        "label": "_tokenIds",
        "offset": 0,
        "slot": "9",
        "type": "t_struct(Counter)3893_storage"
      },
      {
        "astId": 6790,
        "contract": "contracts/dragon/DragonNestSupporter.sol:DragonNestSupporter",
        "label": "_currentSaleId",
        "offset": 0,
        "slot": "10",
        "type": "t_struct(Counter)3893_storage"
      },
      {
        "astId": 6796,
        "contract": "contracts/dragon/DragonNestSupporter.sol:DragonNestSupporter",
        "label": "_itemCost",
        "offset": 0,
        "slot": "11",
        "type": "t_uint256"
      },
      {
        "astId": 6800,
        "contract": "contracts/dragon/DragonNestSupporter.sol:DragonNestSupporter",
        "label": "_whitelist",
        "offset": 0,
        "slot": "12",
        "type": "t_mapping(t_address,t_bool)"
      },
      {
        "astId": 6804,
        "contract": "contracts/dragon/DragonNestSupporter.sol:DragonNestSupporter",
        "label": "_whitelistAllowance",
        "offset": 0,
        "slot": "13",
        "type": "t_mapping(t_address,t_uint256)"
      },
      {
        "astId": 6806,
        "contract": "contracts/dragon/DragonNestSupporter.sol:DragonNestSupporter",
        "label": "_isSaleActive",
        "offset": 0,
        "slot": "14",
        "type": "t_bool"
      },
      {
        "astId": 6808,
        "contract": "contracts/dragon/DragonNestSupporter.sol:DragonNestSupporter",
        "label": "PUBLICSALETIMESTAMP",
        "offset": 0,
        "slot": "15",
        "type": "t_uint256"
      }
    ],
    "types": {
      "t_address": {
        "encoding": "inplace",
        "label": "address",
        "numberOfBytes": "20"
      },
      "t_bool": {
        "encoding": "inplace",
        "label": "bool",
        "numberOfBytes": "1"
      },
      "t_mapping(t_address,t_bool)": {
        "encoding": "mapping",
        "key": "t_address",
        "label": "mapping(address => bool)",
        "numberOfBytes": "32",
        "value": "t_bool"
      },
      "t_mapping(t_address,t_mapping(t_address,t_bool))": {
        "encoding": "mapping",
        "key": "t_address",
        "label": "mapping(address => mapping(address => bool))",
        "numberOfBytes": "32",
        "value": "t_mapping(t_address,t_bool)"
      },
      "t_mapping(t_address,t_uint256)": {
        "encoding": "mapping",
        "key": "t_address",
        "label": "mapping(address => uint256)",
        "numberOfBytes": "32",
        "value": "t_uint256"
      },
      "t_mapping(t_uint256,t_address)": {
        "encoding": "mapping",
        "key": "t_uint256",
        "label": "mapping(uint256 => address)",
        "numberOfBytes": "32",
        "value": "t_address"
      },
      "t_mapping(t_uint256,t_string_storage)": {
        "encoding": "mapping",
        "key": "t_uint256",
        "label": "mapping(uint256 => string)",
        "numberOfBytes": "32",
        "value": "t_string_storage"
      },
      "t_string_storage": {
        "encoding": "bytes",
        "label": "string",
        "numberOfBytes": "32"
      },
      "t_struct(Counter)3893_storage": {
        "encoding": "inplace",
        "label": "struct Counters.Counter",
        "members": [
          {
            "astId": 3892,
            "contract": "contracts/dragon/DragonNestSupporter.sol:DragonNestSupporter",
            "label": "_value",
            "offset": 0,
            "slot": "0",
            "type": "t_uint256"
          }
        ],
        "numberOfBytes": "32"
      },
      "t_uint256": {
        "encoding": "inplace",
        "label": "uint256",
        "numberOfBytes": "32"
      }
    }
  }
}